:020000040800F2
:1000000000800020354C0008791E00087B1E000887
:100010007D1E00087F1E0008811E000800000000F1
:10002000000000000000000000000000831E000827
:10003000851E000800000000871E0008891E0008B9
:10004000854C0008854C0008854C0008854C00084C
:10005000854C0008854C0008854C0008854C00083C
:10006000854C0008854C0008854C0008854C00082C
:10007000854C0008854C0008854C0008854C00081C
:10008000854C000800000000854C0008854C0008E5
:10009000854C0008854C0008854C0008854C0008FC
:1000A000854C0008854C0008854C0008854C0008EC
:1000B000854C0008854C0008854C0008854C0008DC
:1000C000854C0008854C0008854C0008854C0008CC
:1000D000854C0008911E0008854C0008854C0008DE
:1000E000854C0008854C0008854C0008854C0008AC
:1000F000854C0008854C0008854C00080000000075
:1001000000000000854C000800000000854C00083D
:10011000854C000800000000854C0008854C000854
:10012000854C0008854C0008854C0008854C00086B
:10013000854C00080000000000000000854C00080D
:10014000854C0008854C00080000000000000000FD
:10015000000000000000000000000000000000009F
:10016000000000000000000000000000854C0008B6
:10017000854C0008000000000000000000000000A6
:1001800000000000854C0008000000000000000096
:10019000000000000000000000000000000000005F
:1001A0000000000000000000854C0008854C00089D
:1001B000854C0008854C0008854C000800000000B4
:1001C00000000000854C0008000000000000000056
:0801D000854C0008854C000875
:1002000010B5054C237833B9044B13B10448AFF350
:1002100000800123237010BDD809002000000000D9
:10022000388F000808B5034B1BB103490348AFF3EF
:10023000008008BD00000000DC090020388F0008A5
:1002400080F0004002E000BF81F0004142001FBF8B
:100250005FEA410392EA030F7FEA226C7FEA236C94
:100260006AD04FEA1262D2EB1363C1BFD218414089
:1002700048404140B8BF5B42192B88BF704710F01F
:10028000004F40F4000020F07F4018BF404211F0C2
:10029000004F41F4000121F07F4118BF494292EA2A
:1002A000030F3FD0A2F1010241FA03FC10EB0C0056
:1002B000C3F1200301FA03F100F0004302D54942E3
:1002C00060EB4000B0F5000F13D3B0F1807F06D390
:1002D00040084FEA310102F10102FE2A51D2B1F188
:1002E000004F40EBC25008BF20F0010040EA03007D
:1002F0007047490040EB0000013A28BFB0F5000FFD
:10030000EDD2B0FA80FCACF1080CB2EB0C0200FAB2
:100310000CF0AABF00EBC25052421843BCBFD04001
:100320001843704792F0000F81F4000106BF80F47B
:1003300000000132013BB5E74FEA41037FEA226C3E
:1003400018BF7FEA236C21D092EA030F04D092F009
:10035000000F08BF0846704790EA010F1CBF00203D
:10036000704712F07F4F04D1400028BF40F000409A
:10037000704712F100723CBF00F50000704700F0BA
:10038000004343F0FE4040F4000070477FEA2262E1
:1003900016BF08467FEA23630146420206BF5FEAB2
:1003A000412390EA010F40F4800070474FF00003B2
:1003B00004E000BF10F0004348BF40425FEA000C79
:1003C00008BF704743F0964301464FF000001CE021
:1003D00050EA010208BF70474FF000030AE000BF77
:1003E00050EA010208BF704711F0004302D54042B5
:1003F00061EB41015FEA010C02BF84460146002027
:1004000043F0B64308BFA3F18053A3F50003BCFA41
:100410008CF2083AA3EBC25310DB01FA02FC6344EE
:1004200000FA02FCC2F12002BCF1004F20FA02F2F5
:1004300043EB020008BF20F00100704702F12002E8
:1004400001FA02FCC2F1200250EA4C0021FA02F249
:1004500043EB020008BF20EADC7070474FF0FF0C4E
:100460001CEAD0521EBF1CEAD15392EA0C0F93EA49
:100470000C0F6FD01A4480EA010C400218BF5FEAEB
:1004800041211ED04FF0006343EA501043EA51115E
:10049000A0FB01310CF00040B1F5000F3EBF490058
:1004A00041EAD3715B0040EA010062F17F02FD2A5C
:1004B0001DD8B3F1004F40EBC25008BF20F001003F
:1004C000704790F0000F0CF0004C08BF49024CEA56
:1004D000502040EA51207F3AC2BFD2F1FF0340EAE8
:1004E000C250704740F400004FF00003013A5DDC59
:1004F00012F1190FDCBF00F000407047C2F100029A
:10050000410021FA02F1C2F1200200FA02FC5FEA86
:10051000310040F1000053EA4C0308BF20EADC70D0
:10052000704792F0000F00F0004C02BF400010F442
:10053000000F013AF9D040EA0C0093F0000F01F0EF
:10054000004C02BF490011F4000F013BF9D041EA11
:100550000C018FE70CEAD15392EA0C0F18BF93EA13
:100560000C0F0AD030F0004C18BF31F0004CD8D13D
:1005700080EA010000F00040704790F0000F17BFC4
:1005800090F0004F084691F0000F91F0004F14D00A
:1005900092EA0C0F01D142020FD193EA0C0F03D162
:1005A0004B0218BF084608D180EA010000F0004065
:1005B00040F0FE4040F40000704740F0FE4040F440
:1005C000400070474FF0FF0C1CEAD0521EBF1CEADF
:1005D000D15392EA0C0F93EA0C0F69D0A2EB0302FD
:1005E00080EA010C49024FEA402037D04FF0805397
:1005F00043EA111143EA10130CF000408B4238BF5C
:100600005B0042F17D024FF4000C8B4224BF5B1A69
:1006100040EA0C00B3EB510F24BFA3EB510340EAB7
:100620005C00B3EB910F24BFA3EB910340EA9C0065
:10063000B3EBD10F24BFA3EBD10340EADC001B01D5
:1006400018BF5FEA1C1CE0D1FD2A3FF650AF8B4279
:1006500040EBC25008BF20F0010070470CF0004C86
:100660004CEA50207F32C2BFD2F1FF0340EAC250B1
:10067000704740F400004FF00003013A37E792F072
:10068000000F00F0004C02BF400010F4000F013AD0
:10069000F9D040EA0C0093F0000F01F0004C02BFCB
:1006A000490011F4000F013BF9D041EA0C0195E734
:1006B0000CEAD15392EA0C0F08D142027FF47DAFCD
:1006C00093EA0C0F7FF470AF084676E793EA0C0FBD
:1006D00004D14B023FF44CAF08466EE730F0004CBB
:1006E00018BF31F0004CCAD130F000427FF45CAF4B
:1006F00031F000437FF43CAF5FE700BF42000ED211
:10070000B2F1FE4F0BD34FF09E03B3EB126209D44C
:100710004FEA002343F0004323FA02F070474FF002
:100720000000704712F1610F01D1420202D14FF077
:10073000FF3070474FF00000704700BF53B94AB90F
:10074000002908BF00281CBF4FF0FF314FF0FF30D9
:1007500000F06CB9ADF1080C6DE904CE00F006F8BC
:10076000DDF804E0DDE9022304B070472DE9F0472D
:10077000089E0D4604468E46002B40F082808A4239
:10078000174646D9B2FA82F24AB1C2F1200105FAFF
:1007900002F320FA01F1974041EA030E94404FEA38
:1007A0001748230CBEFBF8FCB9B208FB1CEE43EA69
:1007B0000E430CFB01F098420AD9FB180CF1FF35EF
:1007C00080F01681984240F21381ACF1020C3B4458
:1007D0001B1AA4B2B3FBF8F008FB103344EA03443D
:1007E00000FB01F1A14209D93C1900F1FF3380F06F
:1007F0000181A14240F2FE8002383C44641A40EA82
:100800000C4000211EB1D4400023C6E90043BDE8DE
:10081000F08702B9FFDEB2FA82F2002A4FD1CB1B79
:100820004FEA174E1FFA87F80121B3FBFEFC250C97
:100830000EFB1C3345EA034508FB0CF3AB4207D91A
:100840007D190CF1FF3002D2AB4200F2E780844602
:10085000ED1AA3B2B5FBFEF00EFB105543EA0544BA
:1008600008FB00F8A04507D93C1900F1FF3302D27C
:10087000A04500F2D7801846A4EB080440EA0C40DB
:10088000C0E78B4208D9002E00F0AF800021C6E9F6
:1008900000050846BDE8F087B3FA83F100294BD183
:1008A000AB4202D3824200F2B780841A65EB0303A5
:1008B00001209E46002EAAD0C6E9004EA7E7C2F14D
:1008C000200C01FA02F3974020FA0CF04FEA174E81
:1008D00021FA0CFC1843BCFBFEF1050C0EFB11CCFD
:1008E0001FFA87F845EA0C4501FB08F3AB4204FA0E
:1008F00002F409D97D1901F1FF3C80F08B80AB42F5
:1009000040F2888002393D44EB1A85B2B3FBFEF019
:100910000EFB103345EA034500FB08F3AB4207D951
:100920007D1900F1FF3C71D2AB426FD902383D44D2
:10093000EB1A40EA014178E7C1F1200C8B4022FA22
:100940000CF71F4320FA0CF405FA01F34FEA174E97
:1009500025FA0CF51C43230CB5FBFEF91FFA87F8AA
:100960000EFB195543EA054509FB08FAAA4502FAA8
:1009700001F200FA01F308D97D1909F1FF3047D2DD
:10098000AA4545D9A9F102093D44A5EB0A05A4B23F
:10099000B5FBFEF00EFB105544EA054400FB08F8D9
:1009A000A04507D93C1900F1FF352DD2A0452BD920
:1009B00002383C4440EA0940A4EB0804A0FB028949
:1009C0004C45C6464D4619D316D05EB1B3EB0E0268
:1009D00064EB050404FA0CFCCA404CEA0202CC4069
:1009E000C6E900240021BDE8F087314630460EE715
:1009F000AC46EDE6184601E74345E6D2B8EB020EF9
:100A000069EB07050138E0E72846D3E760468FE742
:100A10008146BAE7614677E708464BE7ACF1020C3E
:100A20003D4415E702383C4426E700BF704700BF4D
:100A300000000000000000000000000000000000B6
:100A400090F800F06DE9024520F007016FF0000C0E
:100A500010F0070491F820F040F049804FF00004B6
:100A60006FF00700D1E9002391F840F000F1080091
:100A700082FA4CF2A4FA8CF283FA4CF3A2FA8CF3C9
:100A80004BBBD1E9022382FA4CF200F10800A4FA30
:100A90008CF283FA4CF3A2FA8CF3E3B9D1E9042384
:100AA00082FA4CF200F10800A4FA8CF283FA4CF3BB
:100AB000A2FA8CF37BB9D1E9062301F1200182FA75
:100AC0004CF200F10800A4FA8CF283FA4CF3A2FA7B
:100AD0008CF3002BC6D0002A04BF04301A4612BA89
:100AE000B2FA82F2FDE8024500EBD2007047D1E98C
:100AF000002304F00305C4F100004FEAC50514F01B
:100B0000040F91F840F00CFA05F562EA05021CBFEB
:100B100063EA050362464FF00004A9E70000000005
:100B200001F0FF01102A2BDB10F0070F08D010F89E
:100B3000013B013A8B422DD010F0070F42B3F6D1A2
:100B4000F0B441EA012141EA014122F007047FF0BB
:100B500000070023F0E80256083C85EA010586EA12
:100B6000010685FA47F5A3FA87F586FA47F6A5FA4E
:100B700087F68EB9EED1F0BC01F0FF0102F007025A
:100B800032B110F8013B013A83EA010313B1F8D105
:100B90000020704701387047002D06BF35460338E6
:100BA000073815F0010F07D1013015F4807F02BF1F
:100BB000013015F4C03F0130F0BC0138704700BF70
:100BC000844641EA000313F003036DD1403A41D358
:100BD00051F8043B40F8043B51F8043B40F8043B17
:100BE00051F8043B40F8043B51F8043B40F8043B07
:100BF00051F8043B40F8043B51F8043B40F8043BF7
:100C000051F8043B40F8043B51F8043B40F8043BE6
:100C100051F8043B40F8043B51F8043B40F8043BD6
:100C200051F8043B40F8043B51F8043B40F8043BC6
:100C300051F8043B40F8043B51F8043B40F8043BB6
:100C400051F8043B40F8043B51F8043B40F8043BA6
:100C5000403ABDD2303211D351F8043B40F8043B46
:100C600051F8043B40F8043B51F8043B40F8043B86
:100C700051F8043B40F8043B103AEDD20C3205D356
:100C800051F8043B40F8043B043AF9D2043208D04E
:100C9000D2071CBF11F8013B00F8013B01D30B88C0
:100CA00003806046704700BF082A13D38B078DD09E
:100CB00010F003038AD0C3F10403D21ADB071CBF70
:100CC00011F8013B00F8013B80D331F8023B20F8DA
:100CD000023B7BE7043AD9D3013A11F8013B00F813
:100CE000013BF9D20B7803704B7843708B7883709B
:100CF0006046704781F0004102E000BF83F000438E
:100D000030B54FEA41044FEA430594EA050F08BFA6
:100D100090EA020F1FBF54EA000C55EA020C7FEA6A
:100D2000645C7FEA655C00F0E2804FEA5454D4EBE7
:100D30005555B8BF6D420CDD2C4480EA020281EAB1
:100D4000030382EA000083EA010180EA020281EAE9
:100D50000303362D88BF30BD11F0004F4FEA01313B
:100D60004FF4801C4CEA113102D0404261EB41014A
:100D700013F0004F4FEA03334CEA133302D05242D0
:100D800063EB430394EA050F00F0A780A4F101048C
:100D9000D5F1200E0DDB02FA0EFC22FA05F28018C6
:100DA00041F1000103FA0EF2801843FA05F35941AC
:100DB0000EE0A5F120050EF1200E012A03FA0EFC2B
:100DC00028BF4CF0020C43FA05F3C01851EBE37155
:100DD00001F0004507D54FF0000EDCF1000C7EEB72
:100DE00000006EEB0101B1F5801F1BD3B1F5001FB0
:100DF0000CD349085FEA30004FEA3C0C04F10104CF
:100E00004FEA445212F5800F80F09A80BCF1004FF7
:100E100008BF5FEA500C50F1000041EB045141EA79
:100E2000050130BD5FEA4C0C404141EB0101013C42
:100E300028BFB1F5801FE9D291F0000F04BF014631
:100E40000020B1FA81F308BF2033A3F10B03B3F103
:100E500020020CDA0C3208DD02F1140CC2F10C0293
:100E600001FA0CF021FA02F10CE002F11402D8BFF1
:100E7000C2F1200C01FA02F120FA0CFCDCBF41EABD
:100E80000C019040E41AA2BF01EB0451294330BD8C
:100E90006FEA04041F3C1CDA0C340EDC04F1140469
:100EA000C4F1200220FA04F001FA02F340EA030040
:100EB00021FA04F345EA030130BDC4F10C04C4F186
:100EC000200220FA02F001FA04F340EA0300294666
:100ED00030BD21FA04F0294630BD94F0000F83F4B0
:100EE000801306BF81F480110134013D4EE77FEA93
:100EF000645C18BF7FEA655C29D094EA050F08BFDF
:100F000090EA020F05D054EA000C04BF19461046BF
:100F100030BD91EA030F1EBF0021002030BD5FEA03
:100F2000545C05D14000494128BF41F0004130BD2B
:100F300014F580043CBF01F5801130BD01F000457F
:100F400045F0FE4141F470014FF0000030BD7FEAF2
:100F5000645C1ABF194610467FEA655C1CBF0B46ED
:100F6000024650EA013406BF52EA033591EA030F04
:100F700041F4002130BD00BF90F0000F04BF0021FC
:100F8000704730B54FF4806404F132044FF000052F
:100F90004FF0000150E700BF90F0000F04BF0021A8
:100FA000704730B54FF4806404F1320410F000450E
:100FB00048BF40424FF000013EE700BF42004FEA09
:100FC000E2014FEA31014FEA02701FBF12F07F4386
:100FD00093F07F4F81F06051704732F07F4208BF3D
:100FE000704793F07F4F04BF41F40021704730B544
:100FF0004FF4607401F0004521F000411CE700BF90
:1010000050EA010208BF704730B54FF000050AE012
:1010100050EA010208BF704730B511F0004502D513
:10102000404261EB41014FF4806404F132045FEA15
:10103000915C3FF4D8AE4FF003025FEADC0C18BFBE
:1010400003325FEADC0C18BF033202EBDC02C2F1B0
:10105000200300FA03FC20FA02F001FA03FE40EA42
:101060000E0021FA02F11444BDE600BF70B54FF046
:10107000FF0C4CF4E06C1CEA11541DBF1CEA135524
:1010800094EA0C0F95EA0C0F00F0DEF82C4481EA8C
:10109000030621EA4C5123EA4C5350EA013518BFAC
:1010A00052EA033541F4801143F4801338D0A0FB99
:1010B00002CE4FF00005E1FB02E506F00042E0FB46
:1010C00003E54FF00006E1FB03569CF0000F18BF4C
:1010D0004EF0010EA4F1FF04B6F5007F64F54074F4
:1010E00004D25FEA4E0E6D4146EB060642EAC62187
:1010F00041EA55514FEAC52040EA5E504FEACE2EF4
:10110000B4F1FD0C88BFBCF5E06F1ED8BEF1004FF6
:1011100008BF5FEA500E50F1000041EB045170BD72
:1011200006F0004646EA010140EA020081EA0301B6
:10113000B4EB5C04C2BFD4EB0C0541EA045170BDB2
:1011400041F480114FF0000E013C00F3AB8014F12C
:10115000360FDEBF002001F0004170BDC4F1000475
:10116000203C35DA0C341BDC04F11404C4F12005F6
:1011700000FA05F320FA04F001FA05F240EA020051
:1011800001F0004221F0004110EBD37021FA04F687
:1011900042EB06015EEA430E08BF20EAD37070BD41
:1011A000C4F10C04C4F1200500FA04F320FA05F0A0
:1011B00001FA04F240EA020001F0004110EBD370A2
:1011C00041F100015EEA430E08BF20EAD37070BD12
:1011D000C4F1200500FA05F24EEA020E20FA04F3EB
:1011E00001FA05F243EA020321FA04F001F000419A
:1011F00021FA04F220EA020000EBD3705EEA430E0B
:1012000008BF20EAD37070BD94F0000F0FD101F039
:101210000046400041EB010111F4801F08BF013C72
:10122000F7D041EA060195F0000F18BF704703F0B0
:101230000046520043EB030313F4801F08BF013D37
:10124000F7D043EA0603704794EA0C0F0CEA1355F3
:1012500018BF95EA0C0F0CD050EA410618BF52EAAD
:101260004306D1D181EA030101F000414FF00000B3
:1012700070BD50EA410606BF1046194652EA4306C1
:1012800019D094EA0C0F02D150EA013613D195EA35
:101290000C0F05D152EA03361CBF104619460AD17D
:1012A00081EA030101F0004141F0FE4141F4700187
:1012B0004FF0000070BD41F0FE4141F4780170BD77
:1012C00070B54FF0FF0C4CF4E06C1CEA11541DBFDC
:1012D0001CEA135594EA0C0F95EA0C0F00F0A7F8DE
:1012E000A4EB050481EA030E52EA03354FEA01310B
:1012F00000F088804FEA03334FF0805545EA13131E
:1013000043EA12634FEA022245EA111545EA1065E5
:101310004FEA00260EF000419D4208BF964244F17C
:10132000FD0404F5407402D25B084FEA3202B61A9B
:1013300065EB03055B084FEA32024FF480104FF46F
:10134000002CB6EB020E75EB030E22BFB61A7546E3
:1013500040EA0C005B084FEA3202B6EB020E75EB76
:10136000030E22BFB61A754640EA5C005B084FEADE
:101370003202B6EB020E75EB030E22BFB61A7546AB
:1013800040EA9C005B084FEA3202B6EB020E75EBB6
:10139000030E22BFB61A754640EADC0055EA060E77
:1013A00018D04FEA051545EA16754FEA06164FEABA
:1013B000C30343EA52734FEAC2025FEA1C1CC0D166
:1013C00011F4801F0BD141EA00014FF000004FF0F3
:1013D000004CB6E711F4801F04BF01430020B4F1B4
:1013E000FD0C88BFBCF5E06F3FF6AFAEB5EB030C6C
:1013F00004BFB6EB020C5FEA500C50F1000041EB69
:10140000045170BD0EF0004E4EEA113114EB5C0435
:10141000C2BFD4EB0C0541EA045170BD41F4801108
:101420004FF0000E013C90E645EA060E8DE60CEA10
:10143000135594EA0C0F08BF95EA0C0F3FF43BAF2D
:1014400094EA0C0F0AD150EA01347FF434AF95EAE4
:101450000C0F7FF425AF104619462CE795EA0C0FC8
:1014600006D152EA03353FF4FDAE1046194622E795
:1014700050EA410618BF52EA43067FF4C5AE50EA6F
:1014800041047FF40DAF52EA43057FF4EBAE12E75F
:101490004FF0FF3C06E000BF4FF0010C02E000BF40
:1014A0004FF0010C4DF804CD4FEA410C7FEA6C5C23
:1014B0004FEA430C18BF7FEA6C5C1BD001B050EAC6
:1014C000410C0CBF52EA430C91EA030F02BF90EAB1
:1014D000020F0020704710F1000F91EA030F58BF70
:1014E000994208BF90422CBFD8176FEAE37040F0D2
:1014F000010070474FEA410C7FEA6C5C02D150EA70
:10150000013C07D14FEA430C7FEA6C5CD6D152EA2A
:10151000033CD3D05DF8040B704700BF84461046EF
:1015200062468C461946634600E000BF01B5FFF7EE
:10153000B7FF002848BF10F1000F01BD4DF808EDBE
:10154000FFF7F4FF0CBF012000205DF808FB00BF8F
:101550004DF808EDFFF7EAFF34BF012000205DF8E9
:1015600008FB00BF4DF808EDFFF7E0FF94BF012036
:1015700000205DF808FB00BF4DF808EDFFF7CEFF37
:1015800094BF012000205DF808FB00BF4DF808ED76
:10159000FFF7C4FF34BF012000205DF808FB00BF47
:1015A0004FEA410C7FEA6C5C02D150EA013C0AD15F
:1015B0004FEA430C7FEA6C5C02D152EA033C02D151
:1015C0004FF0000070474FF0010070474FEA4102B2
:1015D00012F5001215D211D56FF47873B3EB625285
:1015E00012D94FEAC12343F0004343EA505311F0AC
:1015F000004F23FA02F018BF404270474FF000003E
:10160000704750EA013005D111F0004008BF6FF07B
:10161000004070474FF00000704700BF10B588B021
:10162000002403940494059406940794174BDA6CF1
:1016300042F02002DA64DA6C02F020020092009A92
:10164000DA6C42F00102DA64DA6C02F00102019213
:10165000019ADA6C42F00202DA64DB6C03F00203F6
:101660000293029B224614214FF0904000F088FE26
:1016700014230393012304930594069403A94FF0C4
:10168000904000F0ABFD08B010BD00BF001002405C
:1016900008B51548154B0360A3F17563A3F57A23CC
:1016A000A3F605434360002383600122C260036107
:1016B00043618361C361036200F0ECFF50B9002114
:1016C000094801F095FA40B90021074801F0BEFA37
:1016D00030B908BD00F0DEF8F1E700F0DBF8F3E721
:1016E00000F0D8F8F5E700BFF409002000540040EE
:1016F00008B51448144B0360A3F17563A3F57D236B
:10170000053B4360002383600122C26003614361A3
:101710008361C361036200F0BDFF50B90021094835
:1017200001F066FA40B90021064801F08FFA30B99D
:1017300008BD00F0AFF8F1E700F0ACF8F3E700F017
:10174000A9F8F5E7400A0020007800402DE9F041B3
:101750008CB000230793089309930A930B930368B3
:101760003D4A934205D03D4A93423CD00CB0BDE87F
:10177000F0813B4CE36C43F00103E364E36C03F062
:1017800001030193019BE36C43F00203E364E36C08
:1017900003F002030293029B4FF4004307934FF0C0
:1017A0001208CDF820800127099700260A96042503
:1017B0000B9507A94FF0904000F010FD8023079390
:1017C000CDF8208009970A960B9507A9254800F0C7
:1017D00005FDA36D43F40013A365A36D03F400138B
:1017E0000393039BC2E71E4CE36C43F00103E364E5
:1017F000E36C03F001030493049BE36C43F00203E6
:10180000E364E36C03F002030593059B4FF48073DC
:101810000793122708970126099600250A950223A7
:101820000B9307A94FF0904000F0D8FC20230793BA
:10183000089709960A9508230B9307A9094800F011
:10184000CDFCA36D43F08043A365A36D03F08043FB
:101850000693069B8AE700BF0054004000780040D2
:10186000001002400004004810B504460268074B0F
:101870001B689A4205D001220549204602F0A2F8D1
:1018800010BD034B187802F091FFF4E7F80A00202E
:101890008C0A002072B6FEE710B5A4B038220021F1
:1018A00016A803F01BFA00241194129413941494B4
:1018B000159444222146684603F010FA204601F0B0
:1018C000F1F9012316934FF48033179302231D93EC
:1018D00003221E921F92222220922193229323936D
:1018E00016A801F099FAC8B90F2311930323129394
:1018F0000023139314931593042111A801F044FDC0
:1019000070B940F2411300930023019306930893AA
:10191000684601F05FFE28B924B010BDFFF7BAFF9A
:10192000FFF7B8FFFFF7B6FF00B593B000211091A5
:10193000ADF8441000230F930E9301912E2202A8BC
:1019400003F0CCF900F06AFBFFF7A6FFFFF766FE95
:10195000FFF79EFEFFF7CCFE00F018FA00F0C6FA83
:1019600002F0ACFF01224149414802F02BF800F09F
:10197000D5F800F0F7F800F0D8F800F089F900F099
:1019800090F930B90E233B4A0021084600F04EF989
:1019900042E01023384A0021084600F047F93BE0B6
:1019A00001AC364B0FCB84E80F002046FFF748F818
:1019B000C3B222460021084600F038F913E001AC1A
:1019C0002F4D0FCD0FC495E8070003C424F8022B58
:1019D000120C227001A8FFF733F8C3B201AA00214C
:1019E000084600F023F927490F98FEF737FDFEF768
:1019F00085FE0146012002F0ABFE4FF47A7000F044
:101A00002FFB0E98FEF77AFE0146022002F0A0FEA0
:101A10004FF47A7000F024FB02F0E8FE04214FF04E
:101A2000904000F0B2FC10A800F042F90028C6D1A6
:101A30000EAA0FA910A800F06DF90028B0D10E98D9
:101A4000FEF75CFE04460F98FEF758FE024623465A
:101A50000D4901A803F092F901A8FEF7F1FFC3B206
:101A600001AA0021084600F0E1F8BCE78C0A00203A
:101A7000F80A0020588F0008688F0008988F000827
:101A8000A88F000800002041788F000810B584B0AE
:101A900000240EE04FF48073029301230193074A60
:101AA0002244009200227821054800F0CDFF013445
:101AB000E4B21A2CEED904B010BD00BF0000002023
:101AC000F409002000B587B08DF817004FF480733B
:101AD0000293012301930DF1170200920022782155
:101AE000024800F0B1FF07B05DF804FBF4090020E4
:101AF00000B587B08DF817004FF48073029301236F
:101B000001930DF11702009240227821024800F063
:101B10009BFF07B05DF804FBF409002008B5C8205E
:101B200000F09EFAFFF7B2FF08BD38B5002501E0CE
:101B30000135EDB2072D14D8A5F15000C0B2FFF762
:101B4000C1FF0020FFF7BEFF1020FFF7BBFF0024FE
:101B500014F0800FECD10020FFF7CAFF0134E4B28B
:101B6000F6E738BD08B58D20FFF7ACFF1420FFF76E
:101B7000A9FFAF20FFF7A6FF08BD10B50446A1F1ED
:101B80005000C0B2FFF79EFF200940F01000FFF7A1
:101B900099FF04F00F00FFF795FF10BDF8B5074659
:101BA0000E46203AD5B210F0800F13D1102B15D06D
:101BB00031463846FFF7E1FF0024052C30D805EB0D
:101BC0004503184A02EB4303185DFFF791FF013408
:101BD000E4B2F2E70236F6B20027E7E731463846CC
:101BE000FFF7CBFF002407E004EB05130E4AD05C9F
:101BF000FFF77EFF0134E4B2072CF5D9711CC9B29E
:101C00003846FFF7BAFF002408E004EB0513083359
:101C1000054AD05CFFF76CFF0134E4B2072CF4D91D
:101C2000F8BD00BFC48F0008EC9100082DE9F04119
:101C300004460E4617469846002501E00135EDB2F0
:101C40007A5D62B1434631462046FFF7A7FF08346C
:101C5000E4B2782CF2D90236F6B20024EEE7BDE801
:101C6000F081000000B585B0030A8DF80C308DF8C6
:101C70000D004FF6FF730093022303AA8821034847
:101C800000F066FD05B05DF804FB00BF400A0020CF
:101C900008B543F2A200FFF7E5FF142000F0E0F9D9
:101CA00008BD08B542F22020FFF7DCFF08BD0000A8
:101CB00010B582B004464FF46040FFF7D3FF4FF6F3
:101CC000FF730093062322468921024800F0FEFD9F
:101CD00002B010BD400A002010B40446084600229D
:101CE0000FE0400080F03100C0B20133DBB2072BBF
:101CF00005D810F0800FF4D14000C0B2F5E70132F2
:101D0000D2B2012A03D8A35C58400023EFE710BCED
:101D10007047000070B504460E461546FF21FFF7D8
:101D2000DBFFA378984225D1FF21E01CFFF7D4FF09
:101D30006379984220D12078637843EA0020FEF747
:101D400035FB0E49FEF73EFC0D49FEF787FB0D49BA
:101D5000FEF77AFA3060E078237943EA0020FEF754
:101D600025FB0649FEF72EFC0749FEF777FB2860A6
:101D7000002000E0012070BD0120FCE700FF7F474C
:101D800000002F43000034420000C84208B510484C
:101D9000104B03604FF482734360002383604FF461
:101DA000E062C260036143614FF4007282611022FD
:101DB000C2610362436283620722C2620363082333
:101DC000436301F079FD00B908BDFFF763FDFBE750
:101DD000900A00200030014000B589B00023039331
:101DE00004930593069307930268144B9A4202D01A
:101DF00009B05DF804FB03F560431A6E42F48052AB
:101E00001A661A6E02F480520192019ADA6C42F05C
:101E10000102DA64DB6C03F001030293029BE0230E
:101E2000039302230493002305930693052307934A
:101E300003A94FF0904000F0D1F9D9E700300140FC
:101E400000B583B00B4B1A6E42F001021A661A6E8F
:101E500002F001020092009A9A6D42F080529A6557
:101E60009B6D03F080530193019B00F0A1FF03B031
:101E70005DF804FB00100240FEE7FEE7FEE7FEE728
:101E8000FEE770477047704708B500F0D7F808BD07
:101E900008B5024801F04EFF08BD00BFF80A002057
:101EA00008B503460B4A126842B10A4A1068034457
:101EB0006A46934206D8074A136008BD054A064998
:101EC0001160F2E702F0E0FE0C2303604FF0FF30F8
:101ED000F3E700BFF40A0020680C0020024B4FF02B
:101EE00000629A60704700BF00ED00E008B5174837
:101EF000174B03604FF4E133436000238360C360FA
:101F000003610C2242618361C361036243628362A5
:101F100002F01BFB70B900210C4802F0A3FB60B972
:101F200000210A4802F0C3FB50B9084802F07BFBCD
:101F300048B908BDFFF7AEFCEDE7FFF7ABFCEFE7F4
:101F4000FFF7A8FCF1E7FFF7A5FCF2E7F80A00208D
:101F50000038014010B588B0002303930493059323
:101F6000069307930268184B9A4201D008B010BD3F
:101F700003F558431A6E42F480421A661A6E02F450
:101F800080420192019ADA6C42F00102DA64DB6C61
:101F900003F001030293029B4FF4C06303930223F7
:101FA00004930024059406940723079303A94FF094
:101FB000904000F013F922462146252000F076F8E3
:101FC000252000F0A7F8D1E700380140104B1B682E
:101FD0000BB90120704710B504464FF47A70B0FB7E
:101FE000F3F30C4A1068B0FBF3F000F0A1F868B905
:101FF0000F2C01D901200AE0002221464FF0FF30CA
:1020000000F054F8044B1C60002000E0012010BDDB
:10201000200000201C0000202400002010B5032018
:1020200000F032F80020FFF7D1FF10B10124204664
:1020300010BD0446FFF704FFF9E70000034A1368E8
:10204000034909680B441360704700BF840B0020EC
:1020500020000020014B1868704700BF840B00204F
:1020600038B50446FFF7F6FF0546B4F1FF3F02D04E
:10207000044B1B681C44FFF7EDFF401BA042FAD342
:1020800038BD00BF20000020074AD36823F4E06376
:102090001B041B0C000200F4E060034343F0BF6329
:1020A00043F40033D360704700ED00E030B4174BC9
:1020B000DB68C3F30223C3F10704042C28BF042404
:1020C0001D1D062D18D9033B4FF0FF3505FA04F40A
:1020D00021EA0401994005FA03F322EA03031943B4
:1020E00000280BDB0901C9B200F1604000F5614036
:1020F00080F8001330BC70470023E5E700F00F00C4
:102100000901C9B2024B1954F4E700BF00ED00E029
:1021100014ED00E0002807DB00F01F024009012356
:102120009340024A42F82030704700BF00E100E0CF
:102130000138B0F1807F0AD2064B5860064AF02180
:1021400082F823100020986007221A60704701204F
:10215000704700BF10E000E000ED00E008B590F827
:102160002530DBB2022B09D00423C363012380F89E
:102170002530002280F82420184608BD0268136824
:1021800023F00E0313600268136823F00103136049
:10219000826C136823F480731360436C03F01F0296
:1021A000016C012393404B60C36C026D5A60436D18
:1021B00033B11A6822F480721A60836DC26D5A605E
:1021C000012380F82530002380F82430836B13B17D
:1021D00098470020D1E70020CFE70000F0B583B09A
:1021E000002336E0052400E00024B4403C430235DF
:1021F0005F4E46F825405F4C2568D44325EA020629
:102200004F6817F4803F01D042EA0506594D2E6011
:102210006D6804EA05064F6817F4003F01D042EAF2
:102220000506544D6E60AD6804EA05064F6817F464
:10223000801F01D042EA05064E4DAE60ED682C408D
:102240004E6816F4001F01D042EA0504494AD460E2
:1022500001330A6832FA03F400F0878001249C40BD
:102260002240F5D04D686E1E012E03D9112D01D0EC
:10227000122D12D186685F000325BD4026EA0506AF
:10228000CD68BD4035438560466826EA04064D6842
:10229000C5F300149C4034434460C7685E000325C6
:1022A000B540EC4327EA05078D68B5403D43C5605E
:1022B0004D68022D01D0122D13D1DF08083750F8D8
:1022C00027E003F007054FEA850C0F2505FA0CF50A
:1022D0002EEA050E0D6905FA0CF545EA0E0540F8E3
:1022E0002750056825404C6804F00304B4402C4393
:1022F00004604C6814F0805FAAD01F4C256E45F036
:1023000001052566246E04F001040194019C9D08DA
:10231000AE1C174C54F8267003F00304A6000F24DB
:10232000B44027EA0407B0F1904F3FF45DAF134C7F
:10233000A04212D004F58064A04210D004F580645D
:10234000A0420ED004F58064A0420CD004F5806455
:10235000A0423FF447AF062447E7012445E70224A3
:1023600043E7032441E704243FE703B0F0BD00BF87
:102370000000014000040140001002400004004839
:102380000AB18161704781627047436901EA0302C3
:1023900021EA030141EA02418161704703689A69B9
:1023A00012F0020F01D000229A6203689A6912F0BB
:1023B000010F03D19A6942F001029A61704770B42B
:1023C000039E05686868740D04F4806444F07F74AB
:1023D00044F4583444F47F7444F0030420EA0400C5
:1023E000C1F3090141EA02411943314301436960E4
:1023F00070BC7047F8B505460E46174603689B69E2
:1024000013F0100F01D10020F8BD2B689C6914F067
:10241000200F17D1B6F1FF3FF7D0FFF71BFEC01B0F
:10242000B04201D8002EF0D16B6C43F020036B64F6
:10243000202385F84130002385F8423085F840306C
:102440000120E1E71022DA612B682024DC612846B4
:10245000FFF7A4FF2A68536823F0FF7323F48B333C
:1024600023F4FF7323F0010353606B6C43F0040308
:102470006B6485F84140002385F8423085F8403090
:102480000120C1E770B504460D46164623689B69D6
:1024900013F0020F1DD1324629462046FFF7AAFF4E
:1024A000C8B9B5F1FF3FF1D0FFF7D4FD801BA842BA
:1024B00001D8002DEAD1636C43F02003636420232C
:1024C00084F84130002384F8423084F84030012001
:1024D00000E0002070BD0120FCE72DE9F041064638
:1024E000884617461D463468A46938EA04030CBFC1
:1024F00001240024BC4218D1B5F1FF3FF3D0FFF70F
:10250000A9FD069BC01AA84201D8002DEBD1736C1F
:1025100043F020037364202386F84130002386F8BB
:10252000423086F84030012000E00020BDE8F08114
:102530002DE9F04182B0044690461D46089E099F51
:10254000194B00934FF08073EAB2FFF738FF3A4619
:1025500031462046FFF796FFF8B9012D0ED12368CA
:102560005FFA88F29A620097334600228021204663
:10257000FFF7B3FFA8B902B0BDE8F08123684FEAC6
:1025800018229A623A4631462046FFF77BFF30B95F
:1025900023685FFA88F29A62E5E70120EBE7012001
:1025A000E9E70120E7E700BF0020008070B505469D
:1025B0000C4616462B689B6913F0200F1AD1324641
:1025C00021462846FFF716FFB0B9FFF743FD801BF1
:1025D000A04201D8002CEDD16B6C43F020036B645A
:1025E000202385F84130002385F8423085F84030BB
:1025F000012070BD0020FCE70120FAE770B5044619
:102600000D46164623689B6913F0040F3ED13246EF
:1026100029462046FFF7EEFE0146002838D1236800
:102620009A6912F0200F13D1FFF714FD801BA84206
:1026300001D8002DE6D1636C43F0200363642023AE
:1026400084F84130002384F840300121084670BDF1
:102650009A6912F0040F02D0228D002AF6D12022AE
:10266000DA6121684B6823F0FF7323F48B3323F482
:10267000FF7323F001034B600023636484F841205F
:1026800084F8423084F840300121DFE70021DDE7A3
:102690000121DBE7002859D010B5044690F84130FD
:1026A000002B43D0242384F841302268136823F0A0
:1026B000010313606368226823F07063136122686A
:1026C000936823F400439360E368012B33D0A3683D
:1026D000226843F404439360E368022B31D02268FC
:1026E000536843F0007343F4004353602268D36897
:1026F00023F40043D360236962691343A16922680C
:1027000043EA0123D360E369216A22680B43136023
:102710002268136843F001031360002060642023E3
:1027200084F84130206384F8420010BD80F84030C6
:10273000FFF70CF8B6E7A368226843F40043936000
:10274000CAE723684FF400625A60C8E70120704767
:102750002DE9F04782B00F460A9E90F84110C9B2A9
:10276000202940F0A38004469046994690F84030D6
:10277000012B00F09F804FF0010A80F840A0FFF786
:1027800069FC05460090192352464FF4004120464B
:10279000FFF7A3FE002840F08F80212384F841300A
:1027A000102384F8423000236364C4F82480A4F822
:1027B0002A906363638D9BB2FF2B0AD9FF22228587
:1027C000414B00934FF0807339462046FFF7F7FDE9
:1027D00018E0628D92B222853B4B00934FF000735C
:1027E000D2B239462046FFF7EAFD0BE0628D92B285
:1027F0002285002300934FF00073D2B23946204661
:10280000FFF7DDFD638D9BB2002B33D02A463146A6
:102810002046FFF737FE002850D1626A23681278FD
:102820009A62636A01336362638D9BB2013B9BB220
:102830006385238D013B9BB22385628D92B2002A72
:10284000E0D0002BDED100953346002280212046C7
:10285000FFF743FEA0BB638D9BB2FF2BC6D9FF22BF
:102860002285002300934FF0807339462046FFF7FE
:10287000A6FDC7E72A4631462046FFF797FE08BB6C
:1028800023682022DA6121684B6823F0FF7323F468
:102890008B3323F4FF7323F001034B6084F8412052
:1028A000002384F8423084F8403000E0022002B077
:1028B000BDE8F0870220FAE70120F8E70120F6E7FB
:1028C0000120F4E70120F2E7002000802DE9F04725
:1028D00082B00F460A9E90F84110C9B2202940F0FC
:1028E000A28004469046994690F84030012B00F0B3
:1028F0009E804FF0010A80F840A0FFF7ABFB054631
:102900000090192352464FF400412046FFF7E5FDA1
:10291000002840F08E80222384F84130102384F870
:10292000423000236364C4F82480A4F82A906363CF
:10293000638D9BB2FF2B0AD9FF222285414B009366
:102940004FF0807339462046FFF739FD18E0628D5D
:1029500092B222853B4B00934FF00073D2B23946BE
:102960002046FFF72CFD0BE0628D92B222850023FA
:1029700000934FF00073D2B239462046FFF71FFD97
:10298000638D9BB2002B32D02A4631462046FFF79A
:1029900035FE00284FD123685A6A636A1A70636A49
:1029A00001336362228D013A92B22285638D9BB21C
:1029B000013B9BB26385638D9BB2002BE0D0002A64
:1029C000DED10095334680212046FFF786FDA0BB6F
:1029D000638D9BB2FF2BC7D9FF2222850023009372
:1029E0004FF0807339462046FFF7E9FCC8E72A46D6
:1029F00031462046FFF7DAFD08BB23682022DA6162
:102A000021684B6823F0FF7323F48B3323F4FF73A7
:102A100023F001034B6084F84120002384F8423006
:102A200084F8403000E0022002B0BDE8F0870220C8
:102A3000FAE70120F8E70120F6E70120F4E701209A
:102A4000F2E700BF002400802DE9F04F83B00E466E
:102A5000BDF834A00E9D90F84110C9B2202940F075
:102A6000BB800446904699460C9BCBB1BAF1000F4F
:102A700016D090F84030012B00F0B2804FF0010BDF
:102A800080F840B0FFF7E6FA0746009019235A464F
:102A90004FF400412046FFF720FD30B101209CE0BB
:102AA0004FF400736364012097E0212384F84130E0
:102AB000402384F84230002363640C9A6262A4F8D5
:102AC0002AA06363019700954B4642463146204653
:102AD000FFF72EFD70B9638D9BB2FF2B0FD9FF223C
:102AE0002285002300934FF0807331462046FFF784
:102AF00066FC21E0002384F8403058466DE0628D8A
:102B000092B22285002300934FF00073D2B2314677
:102B10002046FFF754FC0FE0628D92B2228500231D
:102B200000934FF00073D2B231462046FFF747FCC6
:102B3000638D9BB2002B33D03A4629462046FFF7DF
:102B4000A1FC00284ED1626A236812789A62636AF7
:102B500001336362638D9BB2013B9BB26385238D1E
:102B6000013B9BB22385628D92B2002AE0D0002BFC
:102B7000DED100972B46002280212046FFF7ADFCD6
:102B800090BB638D9BB2FF2BC6D9FF222285002309
:102B900000934FF0807331462046FFF710FCC7E7E3
:102BA0003A4629462046FFF701FDF8B9236820225E
:102BB000DA6121684B6823F0FF7323F48B3323F42D
:102BC000FF7323F001034B6084F84120002384F855
:102BD000423084F8403000E0022003B0BDE8F08FBE
:102BE0000220FAE70120F8E70120F6E70120F4E7E8
:102BF00090F84130DBB2202B24D190F84030012BEB
:102C000022D0012380F84030242380F8413002682C
:102C1000136823F0010313600268136823F48053E0
:102C2000136002681368194311600268136843F067
:102C300001031360202380F84130002380F84030E6
:102C400018467047022070470220704790F84130C4
:102C5000DBB2202B22D190F84030012B20D0012371
:102C600080F84030242380F841300268136823F054
:102C7000010313600268136823F4706343EA0121BF
:102C800011600268136843F001031360202380F889
:102C90004130002380F840301846704702207047CA
:102CA00002207047002836D13E4B1B6803F4C063F6
:102CB000B3F5806F08D03B4AD2F8803023F480739C
:102CC000C2F8803000207047364AD2F8803023F4B2
:102CD0008073C2F88030136823F4C06343F4007338
:102CE0001360314B1A68322303FB02F32F4AA2FB15
:102CF00003239B0C013300E0013B2A4A526912F482
:102D0000806F01D0002BF7D1264B5B6913F4806FE5
:102D100044D100207047B0F5007F08D0214A1368E5
:102D200023F4C06343F480631360002070471D4B9D
:102D30001B6803F4C063B3F5806F08D0194AD2F85A
:102D4000803043F48073C2F8803000207047154A09
:102D5000D2F8803043F48073C2F88030136823F4D3
:102D6000C06343F4007313600F4B1A68322303FBF4
:102D700002F30E4AA2FB03239B0C013300E0013B4C
:102D8000084A526912F4806F01D0002BF7D1054B2D
:102D90005B6913F4806F03D10020704703207047F4
:102DA00003207047007000401C00002083DE1B439E
:102DB000024A936843F48043936070470070004078
:102DC000124AD36803F00303D068C0F30310013044
:102DD000032B11D00E4BB3FBF0F30C4AD068C0F3B9
:102DE000062000FB03F0094BDB68C3F341630133AA
:102DF0005B00B0FBF3F07047064BB3FBF0F3D06819
:102E0000C0F3062000FB03F0EDE700BF0010024016
:102E10000024F40080C3C901002800F0548270B57A
:102E200082B00446036813F0010F37D0B44A9368A8
:102E300003F00C03D26802F003020C2B23D0082B02
:102E400023D06368B3F5803F4ED0B3F5A02F51D0A7
:102E5000AB4B1A6822F480321A601A6822F480227E
:102E60001A606368002B52D0FFF7F4F80546A44BB4
:102E70001B6813F4003F11D1FFF7ECF8401B6428E6
:102E8000F5D9032028E2032AD9D19D4B1B6813F4FE
:102E9000003F03D06368002B00F01782236813F013
:102EA000020F5DD0964A936803F00C03D26802F0DB
:102EB00003020C2B3AD0042B3AD0E368002B75D0D8
:102EC0008F4A136843F480731360FFF7C3F8054615
:102ED0008B4B1B6813F4806F5FD1FFF7BBF8401B6F
:102EE0000228F5D90320F7E1854A136843F48033BB
:102EF0001360B6E703F18043A3F53C331A6842F44C
:102F000080221A601A6842F480321A60A9E7FFF73B
:102F1000A1F805467A4B1B6813F4003FBED0FFF7BB
:102F200099F8401B6428F5D90320D5E1022AC2D1C3
:102F3000734B1B6813F4806F03D0E368002B00F021
:102F4000C6816F4A536823F0FE43216943EA016357
:102F500053606C4B1868FFF739F8002840F0B981CE
:102F6000236813F0080F4CD063699BB3644AD2F80E
:102F7000943043F00103C2F89430FFF76BF8054634
:102F80005F4BD3F8943013F0020F3AD1FFF762F899
:102F9000401B0228F4D903209EE1594A536823F0CC
:102FA000FE43216943EA01635360D9E7544A136839
:102FB00023F480731360FFF74DF80546504B1B68F0
:102FC00013F4806FCCD0FFF745F8401B0228F5D9E9
:102FD000032081E14A4AD2F8943023F00103C2F879
:102FE0009430FFF737F80546454BD3F8943013F08B
:102FF000020F06D0FFF72EF8401B0228F4D9032059
:103000006AE1236813F0040F00F081803C4B9B6D54
:1030100013F0805F36D13A4B9A6D42F080529A6538
:103020009B6D03F080530193019B0125364B1B6878
:1030300013F4807F28D0A368012B39D0052B3FD013
:103040002F4BD3F8902022F00102C3F89020D3F840
:10305000902022F00402C3F89020A368002B3DD0FA
:10306000FEF7F8FF0646264BD3F8903013F0020F18
:103070004CD1FEF7EFFF801B41F288339842F2D922
:10308000032029E10025D1E71F4A136843F4807328
:103090001360FEF7DFFF06461B4B1B6813F4807FAF
:1030A000C9D1FEF7D7FF801B0228F5D9032013E111
:1030B000134AD2F8903043F00103C2F89030CCE7C5
:1030C0000F4BD3F8902042F00402C3F89020D3F8BD
:1030D000902042F00102C3F89020BEE7FEF7BAFF4D
:1030E0000646074BD3F8903013F0020F0ED0FEF7D0
:1030F000B1FF801B41F288339842F2D90320EBE004
:10310000001002402400002000700040E5B9236850
:1031100013F0200F35D0A369E3B1774AD2F8983085
:1031200043F00103C2F89830FEF794FF0546724B56
:10313000D3F8983013F0020F23D1FEF78BFF401B1A
:103140000228F4D90320C7E06B4A936D23F0805323
:103150009365DCE7684AD2F8983023F00103C2F89F
:103160009830FEF777FF0546634BD3F8983013F09D
:10317000020F06D0FEF76EFF401B0228F4D9032091
:10318000AAE0E369002B00F0A6805B4A926802F097
:103190000C020C2A69D0022B1DD0574B1A6822F062
:1031A00080721A60DA6822F00302DA60DA6822F0CC
:1031B000887222F48032DA60FEF74CFF04464E4BF0
:1031C0001B6813F0007F4ED0FEF744FF001B02285F
:1031D000F5D9032080E0484A136823F08073136018
:1031E000FEF738FF0546444B1B6813F0007F06D0FE
:1031F000FEF730FF401B0228F5D903206CE03E4A61
:10320000D3683E491940236A606A013843EA0013D3
:10321000A06A43EA0023206B4008013843EA405388
:10322000606B4008013843EA4063E06A43EAC063E8
:103230000B43D360136843F080731360D36843F08B
:103240008073D360FEF706FF04462B4B1B6813F018
:10325000007F06D1FEF7FEFE001B0228F5D90320F1
:103260003AE0002038E0002036E0012B36D0224B37
:10327000DB6803F00301226A914231D103F0F002CE
:10328000616A0139B2EB011F2CD103F4FE42A16A3D
:10329000B2EB012F28D103F07842E16AB2EBC16FA3
:1032A00024D103F4C001226B5208013AB1EB425F12
:1032B0001ED103F0C063626B5208013AB3EB426F58
:1032C00018D1002008E001207047012004E001200F
:1032D00002E0012000E0002002B070BD0120FBE709
:1032E0000120F9E70120F7E70120F5E70120F3E7E6
:1032F0000120F1E70120EFE7001002400C809F0160
:103300001E4B9B6803F00C03042B32D01B4B9B68B5
:1033100003F00C03082B2ED0184B9B6803F00C0312
:103320000C2B01D000207047144AD36803F003032C
:10333000D068C0F303100130032B11D0104BB3FB46
:10334000F0F30E4AD068C0F3062000FB03F00B4BED
:10335000DB68C3F3416301335B00B0FBF3F07047FC
:10336000084BB3FBF0F3D068C0F3062000FB03F07A
:10337000EDE7034870470348704700BF0010024064
:103380000024F40080C3C901002800F0E680F8B5ED
:103390000C460546744B1B6803F00F038B420BD29F
:1033A000714A136823F00F030B431360136803F093
:1033B0000F038B4240F0D3802E6816F001065FD0D9
:1033C0006B68032B15D0022B33D0684B1B6813F4AA
:1033D000806F00F0C680FFF793FF654B984233D9AA
:1033E000624A936823F0F00343F0800393608026E1
:1033F0002BE05E4B1B6813F0007F01D101208BE0B6
:10340000FFF7DEFC5A4B98421AD9584B9B6813F0D1
:10341000F00F05D02E6816F0020616D0AB688BB9F7
:10342000524A936823F0F00343F0800393608026B0
:103430000BE04E4B1B6813F4003FCCD101206BE036
:10344000002602E0002600E00026484A936823F0A8
:10345000030369680B439360FEF7FCFD0746434B8B
:103460009B6803F00C036A68B3EB820F08D0FEF789
:10347000F1FDC01B41F288339842F0D903204BE0A4
:103480002B6813F0020F48D013F0040F04D0374A12
:10349000936843F4E06393602B6813F0080F06D041
:1034A000324A936823F47C5343F4E06393602F4AD9
:1034B000936823F0F003A9680B4393602A4B1B68C1
:1034C00003F00F03A34230D82B6813F0040F06D08B
:1034D000264A936823F4E063E9680B4393602B6802
:1034E00013F0080F07D0214A936823F46053296929
:1034F00043EAC1039360FFF703FF1C4B9B68C3F3D0
:1035000003131C4AD35C03F01F03D8401A4B186006
:103510001A4B1868FEF75AFDF8BD802ECED1134A1B
:10352000936823F0F0039360C8E70F4A136823F011
:103530000F0323431360FEF78DFD06460A4B1B68FD
:1035400003F00F03A342BFD0FEF784FD801B41F2BE
:1035500088339842F2D90320DEE70120704701202A
:10356000DAE70120D8E700BF002002400010024047
:1035700000B4C404DC9700081C00002024000020D4
:10358000014B1868704700BF1C00002008B5FFF70A
:10359000F7FF054B9B68C3F30223044AD35C03F097
:1035A0001F03D84008BD00BF00100240EC97000880
:1035B00008B5FFF7E5FF054B9B68C3F3C223044A38
:1035C000D35C03F01F03D84008BD00BF00100240C9
:1035D000EC970008F0B583B00446036813F4002F9D
:1035E00069D0B34B9B6D13F0805F1ED1B04B9A6DC9
:1035F00042F080529A659B6D03F080530193019BCA
:103600000126AC4A136843F480731360FEF722FD71
:103610000546A84B1B6813F4807F08D1FEF71AFDFE
:10362000401B0228F5D9032502E00026E9E7002522
:1036300045BB9F4BD3F8903013F4407315D0226CE8
:103640009A4212D09A4AD2F8903023F44073D2F8BA
:10365000901041F48031C2F89010D2F8901021F40B
:103660008031C2F89010C2F8903013F0010F10D1E1
:1036700045B98F4AD2F8903023F44073216C0B4344
:10368000C2F89030C6B18A4A936D23F08053936597
:1036900012E0FEF7DFFC0746854BD3F8903013F0BD
:1036A000020FE5D1FEF7D6FCC01B41F288339842E9
:1036B000F2D90325DCE70025236813F0010F08D0B9
:1036C0007B4AD2F8883023F0030361680B43C2F8C9
:1036D0008830236813F0020F08D0754AD2F888307A
:1036E00023F00C03A1680B43C2F88830236813F061
:1036F000040F08D06E4AD2F8883023F03003E16816
:103700000B43C2F88830236813F0080F08D0684ACA
:10371000D2F8883023F0C00321690B43C2F8883007
:10372000236813F0200F08D0614AD2F8883023F4C0
:10373000406361690B43C2F88830236813F0400F7F
:1037400008D05B4AD2F8883023F44053A1690B4378
:10375000C2F88830236813F0800F08D0544AD2F89A
:10376000883023F44043E1690B43C2F88830236872
:1037700013F4807F08D04E4AD2F8883023F44033C7
:10378000216A0B43C2F88830236813F4007F08D005
:10379000474AD2F8883023F44023616A0B43C2F8C9
:1037A0008830236813F4806F0CD0414AD2F88830F7
:1037B00023F44013A16A0B43C2F88830A36AB3F51F
:1037C000801F57D0236813F4006F0CD0384AD2F80A
:1037D000883023F44003E16A0B43C2F88830E36A7F
:1037E000B3F5800F4BD0236813F4805F0CD0304AC0
:1037F000D2F8883023F04073216B0B43C2F8883035
:10380000236BB3F1807F3FD0236813F4005F0CD0AB
:10381000274AD2F8883023F04063616B0B43C2F82B
:103820008830636BB3F1006F33D0236813F4804F9B
:103830000CD01F4AD2F8883023F04063A16B0B43B1
:10384000C2F88830A36BB3F1006F27D0236813F45C
:10385000004F0CD0164AD2F8883023F04053E16B69
:103860000B43C2F88830E36BB3F1805F1BD028466E
:1038700003B0F0BDD36843F48013D360A2E7D368EC
:1038800043F48013D360AEE7D36843F48013D3606E
:10389000BAE7D36843F48013D360C6E7D36843F430
:1038A0008013D360D2E7D36843F48033D360DEE77C
:1038B000001002400070004000286FD010B5044690
:1038C000436A33B94368B3F5827F05D00023C361EF
:1038D00002E00023036143610023A36294F85D309A
:1038E000002B52D0022384F85D302268136823F045
:1038F00040031360E368B3F5E06F4CD90022B3F5E1
:10390000706F04D0B3F5E06F01D00023A362636849
:1039100003F48273A16801F404410B43216901F0AF
:1039200002010B43616901F001010B43A16901F43C
:1039300000710B43E16901F038010B43216A01F08A
:1039400080010B43A16A01F4005120680B4303601E
:10395000638B03F00403616A01F010010B43616B98
:1039600001F008010B43E16801F470610B43216829
:1039700013434B602268D36923F40063D3610020B2
:103980002066012384F85D3010BD84F85C30204649
:10399000FEF722FAA6E74FF48052B0E70120704705
:1039A0000268136823F4907313600268936823F02D
:1039B000805323F0010393602023C0F88430002358
:1039C000C3667047D0F88430202B7ED100297ED08A
:1039D000002A7ED090F87C30012B7CD0012380F827
:1039E0007C308165A0F85C20A0F85E200023C366CF
:1039F0008368B3F5805F06D0A3B9036973B9FF2369
:103A0000A0F8603014E0036923B940F2FF13A0F876
:103A100060300DE0FF23A0F8603009E07F23A0F8BC
:103A2000603005E0B3F1805F21D00023A0F8603062
:103A30000023C0F888302223C0F8843001688B68E6
:103A400043F001038B60436EB3F1005F19D08368CC
:103A5000B3F5805F33D0214BC366002380F87C3000
:103A60000268136843F49073136000207047036981
:103A70001BB97F23A0F86030DAE73F23A0F860305D
:103A8000D6E7B0F868309342E1D88368B3F5805F39
:103A90000FD0134BC366002380F87C300268136894
:103AA00043F4807313600268936843F0805393601B
:103AB000DBE70369002BECD10A4BC366EBE7036934
:103AC000002BC8D1084BC366C7E70220704701200E
:103AD0007047012070470220704700BF0B3B000871
:103AE000D93B0008853C0008733B0008704708B5C7
:103AF00001680A6822F040020A602022C0F8802093
:103B000000220267FFF7F2FF08BD08B5B0F8603089
:103B1000D0F88420222A05D00268936943F0080374
:103B2000936108BD0268516ADBB2826D0B4013706D
:103B3000836D01338365B0F85E309BB2013B9BB26D
:103B4000A0F85E30B0F85E309BB2002BE9D102687D
:103B5000136823F4907313600268936823F00103E1
:103B600093602023C0F884300023C366FDF77CFEF9
:103B7000D7E708B5B0F86020D0F88430222B05D004
:103B80000268936943F00803936108BD03685B6AA8
:103B9000816D13400B80836D02338365B0F85E3016
:103BA0009BB2013B9BB2A0F85E30B0F85E309BB296
:103BB000002BEAD10268136823F490731360026843
:103BC000936823F0010393602023C0F8843000231E
:103BD000C366FDF749FED8E770B50446B0F86060EB
:103BE000D0F88430222B05D00268936943F0080393
:103BF000936170BDB0F8685015E02268136823F433
:103C0000807313602268936823F0805323F00103CC
:103C100093602023C4F884300023E3662046FDF738
:103C200023FE013DADB2ADB12368596AF3B2A26D76
:103C30000B401370A36D0133A365B4F85E309BB2E3
:103C4000013B9BB2A4F85E30B4F85E309BB2002B0F
:103C5000E7D1D2E7B4F85E309BB2002BC9D0B4F8FC
:103C600068209A42C5D92268936823F080539360F4
:103C7000034BE3662268136843F020031360B8E740
:103C80000B3B000870B50446B0F86060D0F8843093
:103C9000222B05D00268936943F00803936170BD3D
:103CA000B0F8685015E02268136823F4807313603D
:103CB0002268936823F0805323F00103936020234C
:103CC000C4F884300023E3662046FDF7CDFD013DB6
:103CD000ADB2A5B123685B6AA26D33401380A36DBA
:103CE0000233A365B4F85E309BB2013B9BB2A4F8EB
:103CF0005E30B4F85E309BB2002BE8D1D3E7B4F865
:103D00005E309BB2002BCAD0B4F868209A42C6D964
:103D10002268936823F080539360044BE366226823
:103D2000136843F020031360B9E700BF733B00083A
:103D30007047000070B504460168CB690D6888685B
:103D400040F60F021A4008D113F0200F05D015F0ED
:103D5000200F30D110F0805F2DD12AB16D4A024082
:103D60002FD16D4E35422CD113F4801F03D010F4A7
:103D7000800F40F0B48013F0800F07D015F0800F53
:103D800040F0B48010F4000F40F0B08013F0400F0A
:103D900003D015F0400F40F0B08013F4000F03D0B3
:103DA00015F0804F40F0AD8013F0807F02D0002DE1
:103DB000C0F2AB8070BDE36E002BFBD0204698476D
:103DC000F8E713F0010F09D015F4807F06D0012623
:103DD0000E62D4F888103143C4F8881013F0020F33
:103DE0000BD010F0010F08D0216802260E62D4F823
:103DF000881041F00401C4F8881013F0040F0BD0B0
:103E000010F0010F08D0216804260E62D4F8881043
:103E100041F00201C4F8881013F0080F0BD015F020
:103E2000200F00D13AB1226808211162D4F888200D
:103E30000A43C4F8882013F4006F0CD015F0806F8B
:103E400009D022684FF400611162D4F8882042F052
:103E50002002C4F88820D4F88820002AAAD013F0C1
:103E6000200F09D015F0200F02D110F0805F03D091
:103E7000E36E0BB120469847D4F8882023689B68EE
:103E800013F0400F02D112F0280F21D02046FFF787
:103E900087FD23689A6812F0400F15D09A6822F0C7
:103EA00040029A60A36F5BB11C4A9A63A06FFEF751
:103EB00055F900283FF47EAFA06F836B984779E7F0
:103EC0002046FFF735FF75E72046FFF731FF71E722
:103ED0002046FFF72DFF0023C4F888306AE74FF42F
:103EE00080130B62204600F09BFB63E7236F002BDF
:103EF0003FF460AF204698475CE72046FFF7F7FDA8
:103F000058E7204600F08EFB54E7204600F089FB7E
:103F100050E700BF0100001020010004213F00080D
:103F200008B5806A0023A0F85E30A0F85630FFF78D
:103F3000FFFE08BD2DE9F04104460168836802696F
:103F4000134342691343C2691343426E1343086823
:103F50009D4A02401A430A602268536823F4405382
:103F6000E1680B435360A1692268984B9A4201D0E3
:103F7000236A1943936823F06E4323F430630B43A1
:103F800093602268D36A23F00F03616A0B43D36204
:103F900022688F4B9A4223D08E4B9A4234D08E4B5C
:103FA0009A424AD08D4B9A4259D0884B9A4268D057
:103FB000102386498A4200F09580E069B0F5004FF1
:103FC00000F0D480082B00F25281DFE813F01401D6
:103FD0003701120150013A015001500150013D01D9
:103FE00003F55843D3F8883003F00303032B09D8B3
:103FF000DFE803F002045C060123DAE70423D8E7D4
:104000000823D6E71023D4E703F5E633D3F8883046
:1040100003F00C030C2B0ED8DFE803F0070D0D0D99
:10402000090D0D0D4A0D0D0D0B000023C1E70423F2
:10403000BFE70823BDE71023BBE703F5E433D3F85C
:10404000883003F03003202B34D004D8A3B3102BD6
:1040500034D10423ADE7302B32D10823A9E703F58F
:10406000E233D3F8883003F0C003802B2AD004D881
:1040700053B3402B2AD104239BE7C02B28D108231C
:1040800097E703F5C833D3F8883003F44063B3F5FA
:10409000006F1FD005D8FBB1B3F5806F1ED104238C
:1040A00087E7B3F5406F1BD1082382E7022380E73F
:1040B00002237EE702237CE700237AE7102378E7D8
:1040C000102376E7022374E7002372E7102370E7DA
:1040D00010236EE702236CE700236AE7102368E7EA
:1040E000102366E7082B00F2B280DFE803F008B087
:1040F0003DB03AB0B0B005004FF4004004E0FFF727
:1041000045FA002800F0A580626A354B33F812208A
:10411000B0FBF2F3656805EB4501994200F29B8024
:10412000B3EB053F00F299804FF0000892B20023F4
:104130004146FCF703FB0F0247EA106706026808D6
:104140002A464346301847F10001FCF7F7FAA0F57C
:104150004072244B9A4200F282802368D860404625
:1041600062E0FFF7CDF8CCE71F48CDE7082B78D801
:10417000DFE803F0072705773C7777770B001A48CD
:1041800003E0FFF703FA00286DD0626A144B33F89E
:104190001230B0FBF3F06268530803EB4000B0FB51
:1041A000F2F080B2A0F110024FF6EF739A425CD8A1
:1041B00020F00F03C0F3420018432368D8600020AA
:1041C00032E0FFF7F5F9DEE7F369FFCF008000404A
:1041D000003801400044004000480040004C0040CE
:1041E000F4970008FFFC0F000024F400FFF788F8A4
:1041F000C9E7224803E0FFF7C9F9002839D0626A0D
:104200001F4B33F81230B0FBF3F0636800EB530040
:10421000B0FBF3F080B2A0F110024FF6EF739A42B8
:1042200029D82368D86000200123A4F86A30A4F8B4
:1042300068300023E3662367BDE8F081FFF7B8F933
:10424000DBE7FFF75DF8D8E74FF40040D7E7012040
:10425000EAE70020E8E70120E6E70120E4E70120A3
:10426000E2E70120E0E70020DEE70120DCE70120B3
:10427000DAE70020D8E70120D6E700BF0024F400E9
:10428000F4970008836A13F0010F06D002685368A0
:1042900023F40033C16A0B435360836A13F0020FA7
:1042A00006D00268536823F48033016B0B435360DC
:1042B000836A13F0040F06D00268536823F4802346
:1042C000416B0B435360836A13F0080F06D00268FA
:1042D000536823F40043816B0B435360836A13F0EC
:1042E000100F06D00268936823F48053C16B0B4310
:1042F0009360836A13F0200F06D00268936823F45A
:104300000053016C0B439360836A13F0400F0AD093
:104310000268536823F48013416C0B435360436C71
:10432000B3F5801F0BD0836A13F0800F06D00268AC
:10433000536823F40023C16C0B4353607047026839
:10434000536823F4C003816C0B435360EBE72DE902
:10435000F84305460F4616469946DDF820802C683E
:10436000E46937EA04030CBF01240024B44241D1BC
:10437000B8F1FF3FF3D0FDF76DFEA0EB090040451B
:1043800024D8B8F1000F21D02B681A6812F0040F5E
:10439000E5D0DA6912F4006FE1D04FF400621A62DE
:1043A0002A68136823F4D07313602A68936823F093
:1043B000010393602023C5F88030C5F88430C5F828
:1043C0008830002385F87C30032014E02A681368C5
:1043D00023F4D07313602A68936823F00103936079
:1043E0002023C5F88030C5F88430002385F87C3060
:1043F000032000E00020BDE8F8832DE9F04182B001
:104400001E46D0F88030202B58D104460D469046E9
:10441000002957D0002A57D090F87C30012B55D076
:10442000012380F87C300023C0F888302123C0F8B5
:104430008030FDF70FFE0746A4F85480A4F856809C
:10444000A368B3F5805F05D04FF00008002384F81F
:104450007C3014E0236913B14FF00008F6E7A8465A
:104460000025F3E738F8023B2268C3F308039362A0
:10447000B4F8562092B2013A92B2A4F85620B4F899
:1044800056309BB273B100963B46002280212046F5
:10449000FFF75DFFE0B9002DE4D015F8012B23688C
:1044A0009A62E5E700963B46002240212046FFF74E
:1044B0004EFF78B92023C4F8803000E0022002B01B
:1044C000BDE8F0810120FAE70120F8E70220F6E7D5
:1044D0000320F4E70320F2E730B583B0044600235D
:1044E000C0F88830FDF7B6FD054623681B6813F059
:1044F000080F0ED123681B6813F0040F17D1202377
:10450000C4F88030C4F88430002084F87C0003B004
:1045100030BD6FF07E430093034600224FF400113C
:104520002046FFF714FF0028E4D00320EFE76FF0E8
:104530007E4300932B4600224FF480012046FFF774
:1045400006FF0028DBD00320E1E778B310B504466E
:10455000D0F880300BB32423C4F88030226813686D
:1045600023F0010313602046FFF7E4FC012813D079
:10457000A36ABBB92268536823F49043536022684E
:10458000936823F02A0393602268136843F00103C1
:1045900013602046FFF7A0FF10BD80F87C30FDF7C8
:1045A000D9FCD8E72046FFF76DFEE3E7012070470E
:1045B00084B00346184A92E8030004AA02E9030003
:1045C00016496A4603C982E803005A6E32B90122CD
:1045D000A3F86A20A3F8682004B0704719688A68B5
:1045E000C2F34262886804A901EB507010F8081CFD
:1045F000C90010F8100C91FBF0F1A3F86A1004A99F
:104600000A4412F8081CC90012F8102C91FBF2F2AF
:10461000A3F86820E0E700BF508F00080C9800085E
:1046200070477047704790F87C30012B18D00123F9
:1046300080F87C302423C0F8803003681A68196839
:1046400021F00101196022F0005200234366016845
:104650000A602022C0F8802080F87C30184670471D
:104660000220704738B590F87C30012B1DD00446ED
:10467000012380F87C302423C0F8803003681D6853
:104680001A6822F001021A600268936823F06043FE
:1046900019439160FFF78CFF23681D602023C4F845
:1046A0008030002084F87C0038BD0220FCE738B55B
:1046B00090F87C30012B1DD00446012380F87C301B
:1046C0002423C0F8803003681D681A6822F00102B4
:1046D0001A600268936823F0606319439160FFF7E2
:1046E00067FF23681D602023C4F88030002084F811
:1046F0007C0038BD0220FCE7034638B1002000E012
:10470000013013F8012B002AFAD1704700207047BE
:10471000E0B1C9B1884208D98B18834211D392B154
:10472000013A8B5C835492B2F9E7002393420DD295
:1047300010B4CC5CC45401339BB29342F9D310BC87
:1047400070470023F2E77047084670477047000043
:10475000154B1B78DBB2012B23D010B50C4601465C
:10476000002000F017F9022100F014F9002100F0F8
:1047700011F9042100F00EF9210E00F00BF9C4F339
:10478000074100F007F9C4F3072100F003F9E1B293
:1047900000F000F902460321072000F023F9012070
:1047A00010BD0120704700BF950B00200B4B1B680C
:1047B0000B4A1268991A01290FD0934202D2D31AD8
:1047C000162B0AD8074B9A4202D3054B064A1A60A9
:1047D000034A1368591C116018707047900B002031
:1047E0008C0B0020CF0B0020B80B0020F8B5314B0C
:1047F0001B881E2B0BD800F0F3F940B12D4B1C8801
:10480000621C1A8000F0FAF92B4B1855EFE7294B80
:104810001B88062B48D9002401E00134A4B2254BA3
:104820001A882546111B062939DD234B1B5DDBB297
:10483000552BF2D16B1C2048C35CDBB2AA2B1FD1D5
:10484000AB1C1D48C35CF3B92B1D1B48C35C6E1D1C
:10485000865D073606EB0326B6B2262E16D88E42A4
:104860001DDC711E144F89B2381900F0A9F83544C7
:10487000013D7B5DDBB298420BD00334A4B2CEE79E
:104880000134A4B2CBE70234A4B2C8E70334A4B223
:10489000C5E7204600F03EF93444A4B2BFE7121B3E
:1048A00092B2044B1A8002B9F8BD03480119FFF710
:1048B0002FFFF9E7880B0020980B0020054B064AD4
:1048C0001360064A1360064B00221A70054BFF2244
:1048D0001A707047B80B00208C0B0020900B002042
:1048E000950B0020070C002000B583B08DF8070061
:1048F000FF2301220DF107010248FFF77EFD03B0FF
:104900005DF804FBF80A0020704700207047022081
:104910007047704760B138B5054641B14B1E9CB237
:1049200029B115F8010BFFF7DFFF2146F6E738BD87
:104930007047000010B50446FFF7E9FF024600206B
:10494000904207D2044B13F81030A34202D001303A
:10495000C0B2F5E710BD00BF18980008F8B50446CE
:10496000067847788378C27802EB032295B2304606
:10497000FFF7E0FF064B03EB40035B78BB4201D03F
:104980000020F8BD2A46211D3046FFF7BEFFF8E79C
:1049900018980008831D024AD154013080B2704734
:1049A000D00B002038B504461546831D0348184433
:1049B000FFF7AEFE601980B238BD00BFD00B0020FB
:1049C00003460020024688420AD210B413F8014B75
:1049D0002044C0B2013292B28A42F7D310BC704771
:1049E0007047000038B50C4C55232370AA23637020
:1049F000A170E070130A2371D3B26371D51DADB2FB
:104A0000063291B22046FFF7DBFF6B1EE0542946C9
:104A10002046FFF77FFF38BDD00B002008B50B4BB9
:104A20001B7863B900210846FFF7B4FFC2B2074BF9
:104A30000121197003210020FFF7D4FF08BD0121D7
:104A40000020FFF7A7FFC2B2F4E700BF8A0B0020E7
:104A500038B5254C2046FFF74FFE82B22146002094
:104A6000FFF7A0FF0446214D2846FFF745FE82B21E
:104A70002946E0B2FFF796FF04461D4D2846FFF792
:104A80003BFE82B22946E0B2FFF78CFF0446194D87
:104A90002846FFF731FE82B22946E0B2FFF782FFD7
:104AA0000446154D2846FFF727FE82B22946E0B29C
:104AB000FFF778FF0446114D2846FFF71DFE82B22E
:104AC0002946E0B2FFF76EFF04460D4D2846FFF77A
:104AD00013FE82B22946E0B2FFF764FFC2B203219F
:104AE0000120FFF77FFF38BD1C98000824980008BC
:104AF0003898000840980008489800085098000826
:104B00005498000808B5002203210220FFF76AFF2D
:104B100008BD00002DE9F0410546C31C2C4AD35CBA
:104B2000DBB20E2B0BD8DFE803F0080C0F121E22AD
:104B3000260A480A0A0A0A0A4B00FFF76FFFBDE877
:104B4000F081FFF785FFFAE7FFF7DCFFF7E70635AF
:104B50001F4B5B5DDBB21F4A137000220321084626
:104B6000FFF740FFEBE71C4B01221A70E7E71B4BF6
:104B700001221A70E3E70646031D154AD35C411D66
:104B8000575C47EA03274FF00008B845D7D2B31D5A
:104B900043449A1C0E48825C0333C45C04EB022439
:104BA000A4B205EB080306331844FFF7D7FE4444CC
:104BB000A4B204341FFA84F8E7E7FFF7A5FEBEE7C6
:104BC000821D034B985C0735595DFFF7A2FEB6E7DF
:104BD000980B0020070C00208B0B0020940B00206A
:104BE000044B1A68044B1B689A4201D0012070479D
:104BF000002070478C0B0020900B00200A4B1B6894
:104C00000A4A126893420CD0094A934202D3064BD7
:104C1000173A1A60044A1368591C11601878C0B218
:104C200070470020704700BF900B00208C0B0020C5
:104C3000CF0B00200D4885460D480E490E4A002333
:104C400002E0D458C4500433C4188C42F9D30B4A40
:104C50000B4C002301E013600432A242FBD3FDF7AA
:104C60003DF900F017F8FCF75FFEFEE7008000203A
:104C700000000020D8090020F49A0008D80900207C
:104C8000640C0020FEE70000014B1868704700BF6D
:104C90002800002070B50D4E0D4D761BB61006D0C5
:104CA000002455F8043B01349847A642F9D1094E37
:104CB000094D761B04F040F9B61006D0002455F8D3
:104CC000043B01349847A642F9D170BDE89A000828
:104CD000E89A0008F09A0008E89A0008F0B48607FD
:104CE00046D0541E002A3CD0CAB2034601E0013C23
:104CF00037D303F8012B9D07F9D1032C2AD9CDB264
:104D000045EA05250F2C45EA054534D9A4F11002E2
:104D100022F00F0C03F120071609674403F110027B
:104D200042E9045542E902551032BA42F8D1721CE8
:104D300014F00C0F03EB021204F00F0613D0331F14
:104D400023F003030433134442F8045B9342FBD182
:104D500006F003042CB1CAB21C4403F8012B9C4298
:104D6000FBD1F0BC704734461346002CF3D1F8E772
:104D700014460346C1E71A462646E0E70EB430B5AE
:104D80009CB01FAB0C4C0D4D53F8042B0193014606
:104D900002910691206802A96FF00044CDE9044514
:104DA000079400F00DF8029B00221A701CB0BDE8B9
:104DB000304003B0704700BF280000200802FFFF0A
:104DC0002DE9F04FD5B08B4617460D93814602F082
:104DD000C1FE036816931846FBF732FEBBF80C3091
:104DE00015901E0604D5DBF81030002B00F0F98773
:104DF0000023CDE92933CDE91833CDE91A331193D6
:104E0000179308932BAB289398463B78CDF82CB09A
:104E100000210022CDE91212002B00F052813C4605
:104E200004E014F8013F002B00F0A880252BF8D1F6
:104E3000E51B40F0A6802378002B00F04281002380
:104E400009938DF883300693661C4FF0FF33647826
:104E500007932B254FF0200A0136A4F120035A2B8B
:104E600000F2AD80DFE813F08602AB00AB008002F9
:104E7000AB00AB00AB006A00AB00AB00E401F50196
:104E8000AB00EF019502AB008F025B005B005B00A3
:104E90005B005B005B005B005B005B00AB00AB009A
:104EA000AB00AB00AB00AB00AB004001AB00870137
:104EB000B802400140014001AB00AB00AB00AB00C9
:104EC0007A02AB00AB00F901AB00AB00AB0095017F
:104ED000AB006A02AB00AB009E07AB00AB00AB00BF
:104EE000AB00AB00AB00AB00AB004001AB008701F7
:104EF000BB014001400140012C02BB018400AB001A
:104F00004D02AB003502970756028400AB009501B5
:104F100082009A07AB00AB007507AB008200A4F1DA
:104F20003003002216F8014B02EB820203EB42022F
:104F3000A4F13003092BF5D909928EE7484602F017
:104F400009FE43681A931846FBF77AFD0346484664
:104F50001C461B9302F0FEFD8268189234B1189B28
:104F600023B1189B1B78002B41F06D81347873E7D7
:104F7000069B347843F0200306936DE7E51B00F0B1
:104F8000A080DDE9293201332A44072BCDE92932FB
:104F9000C8F80070C8F8045006DC08F10808089A40
:104FA00023782A44089247E70B9928AA484603F039
:104FB00051FC002841F0BD830DF1AC08EFE70E96DF
:104FC000002C7ED000231A464FF0010A8DF8EC40E9
:104FD0008DF883300C9207920F9214921092CDF8B4
:104FE00028A03BAF069B069913F0020318BF0AF1F5
:104FF000020A11F0840B05D10999A1EB0A06002ED3
:1050000000F3AD832A9D72B1299A013201350DF169
:1050100083000121072ACDE92925C8E9000100F311
:10502000DE8308F108086BB1299B0133023521A901
:105030000222072BCDE92935C8E9001200F3DD83F0
:1050400008F10808BBF1800F00F09482079B0A9AD0
:105050009E1A002E00F3D382069BDE0500F12E82FD
:10506000299B0A9AC8F8007001331544072B2A952A
:10507000C8F80420299300F3528308F10808069B1E
:10508000580705D5099BA3EB0A04002C00F3C8833D
:10509000DDE908325245ACBF9B1853440893002DFC
:1050A00040F0E682002329930C9B1BB10C994846E3
:1050B00002F04CFC0DF1AC080E9F3B78002B7FF406
:1050C000AEAE2A9BDDF82CB0002B41F08482BBF8F9
:1050D0000C3013F0400F089B18BF4FF0FF330893BC
:1050E000089855B0BDE8F08F0D9B0E96073323F05E
:1050F00007031946F1E80223CDE91223DDE912ABDB
:105100002BF000450D91B04B504629464FF0FF3231
:10511000FCF746FA002840F0F384AB4B5046294692
:105120004FF0FF32FCF71EFA002840F0E98400221D
:10513000002350465946FCF70BFA002841F05F80E7
:105140009DF88320A14FA24B069800214FF0030A3F
:1051500020F080000C910690472CC8BF1F46CDF868
:1051600028A007910F9114911091002A3FF43AAFB3
:105170000AF1010A36E70D9B0E9653F8042B8DF8C1
:10518000EC2000210A464FF0010A0D938DF88310A0
:1051900020E70D9D0E9655F8047B00268DF8836060
:1051A000002F00F02E86079A1346013300F0E087A7
:1051B00031463846FBF7B4FC0C90002801F02C81F6
:1051C0000C9B0796DA1B0A92334622EAE27A0D9587
:1051D0009DF883200C930F9314931093C5E7069BBF
:1051E0000E969D0640F101810D9B073323F00703C6
:1051F0001946F1E802230D9192469B46002A73F16D
:105200000003C0F20381079B013300F05C85069B1D
:1052100023F080055AEA0B0340F09082079B002B95
:1052200040F093820695002307930A9354AF18E148
:105230000D9B53F8042B0992002A80F24584099AA9
:105240000D9352420992069B347843F0040306936F
:1052500002E634788DF88350FEE5069B0E9643F007
:1052600010030693069B990640F1FE830D9B0733BE
:1052700023F00703F3E802AB0D93069B23F480654C
:10528000002300228DF88320079A1146013100F097
:10529000CD8025F0800106915AEA0B0140F04A8248
:1052A000002A40F01087002BBDD115F001030A93AE
:1052B00000F00E8430238DF84F310DF24F17D0E0FF
:1052C0003478069B682C00F0858543F040030693F4
:1052D000C2E5069B0E969E0600F1E984069BDD065C
:1052E00000F1F786069B5C0600F1BE87069B9805D9
:1052F00040F1EF860D9B089953F8042B0D93117024
:10530000DAE63478069B6C2C00F05D8543F01003E0
:105310000693A1E50D9B0E9647F6300153F8042B3A
:10532000ADF8841006990D932A4B179341F00205AE
:1053300092464FF0000B02237824A2E7069B0E96BC
:1053400043F01005AF0640F180830D9B073323F037
:105350000703F3E802AB0D93012392E7069B347831
:1053600043F00803069377E5069B347843F0010386
:10537000069371E59DF88330002B7FF4F7AD347808
:105380008DF883A068E5069B347843F0800306938C
:1053900062E5324612F8014B2A2C01F05182A4F149
:1053A0003003092B164698BF002201F21D8116F822
:1053B000014B02EB820203EB4202A4F13003092B02
:1053C000F5D9079249E500BFFFFFEF7F5C98000821
:1053D000609800086C980008069B0E9643F0100336
:1053E0000693069B9D063FF5FFAE069BD80640F14F
:1053F0004E840D9B53F8042B0D934FEAE27B5B46E2
:10540000002A73F100039246BFF6FDAE079A069D8F
:10541000DAF1000A11464FF02D036BEB4B0B013113
:105420008DF883304FF001037FF433AF012B00F090
:105430008581022B54AF22D117984FEA1A130AF034
:105440000F0143EA0B734FEA1B129A469346435CE3
:1054500007F8013D5AEA0B03EFD154ABDB1B06956D
:105460000A93002307990C930F93149310930A9BAC
:105470009DF883208B42B8BF0B469A4675E64FEAEB
:10548000DA0242EA4B724FEADB010AF007038B466D
:10549000924630335AEA0B013A4607F8013DEED105
:1054A000E907DAD5302BD8D03023023A07F8013C8F
:1054B00054AB9B1A06950A931746D2E7652C40F326
:1054C000EA80DDE9120100220023FCF737F800280A
:1054D00000F0E081299BCF4AC8F800200133013554
:1054E0000122072BCDE92935C8F8042000F3B48543
:1054F00008F10808229B119A934280F2E082299BCE
:10550000169AC8F80020159AC8F8042001331544EB
:10551000072B2A95299300F3498408F10808119B69
:105520005C1E002C7FF7ABAD102C299BDFF8ECB292
:1055300040F3A3855F461026DDF82CB005E008F1A6
:105540000808103C102C40F3978501331035072BC9
:10555000CDE92935C8E90076F1DD28AA5946484643
:1055600003F078F9002840F08D80DDE929350DF150
:10557000AC08E6E7099BA3EB0A06002E7FF766ADB1
:10558000102E299ADFF894B226DD294610232546ED
:105590005C46DDF82CB004E0103E102E08F108083F
:1055A00017DD01321031072ACDE92921C8E900436E
:1055B000F2DD28AA5946484603F04CF9002861D18B
:1055C000103E102EDDE929210DF1AC084FF010033B
:1055D000E7DCA3462C460D4601323544072ACDE9C7
:1055E0002925C8F800B0C8F8046000F35F85079B60
:1055F0000A9A9E1A002E08F108087FF72DAD102E8A
:10560000299ADFF818B225DD2946102325465C4685
:10561000DDF82CB004E0103E102E08F1080816DD6D
:1056200001321031072ACDE92921C8E90043F2DD12
:1056300028AA5946484603F00DF918BB103E102E13
:10564000DDE929210DF1AC084FF01003E8DCA34699
:105650002C460D4601323544072ACDE92925C8F8E4
:1056600000B0C8F8046000F3E38108F10808F3E42F
:105670000B9928AA484603F0EDF800283FF412AD34
:10568000DDF82CB00C9B002B3FF421AD0C99484663
:1056900002F05CF91BE5119B299C012B40F38081F2
:1056A000013401350123072CCDE92945C8F80070E4
:1056B000C8F8043000F3E98108F10808159B169A30
:1056C00001341D44072CCDE92945C8E9002300F326
:1056D000E98108F108080023DDE912010022FBF747
:1056E0002DFF119B002840F07881013B01340137E8
:1056F0001D44072CCDE92945C8F80070C8F80430CE
:1057000000F35E8108F10808199A0134154424ABAE
:10571000072CCDE92945C8E900327FF7AEAC0B99DB
:1057200028AA484603F096F80028A9D12A9D0DF131
:10573000AC08A4E4012B069D7FF47BAEBBF1000F07
:1057400008BFBAF10A0F80F0C6820AF1300A0123BD
:105750008DF84FA106950A930DF24F1781E6102E92
:10576000DDE929212ADD1C933B4640464F46A046F1
:1057700010250B9C994604E0103E102E00F1080005
:1057800016DD0132244B1031072ACDE92921C0E969
:105790000035F1DD28AA2146384603F05BF80028E1
:1057A00040F03D84103E102EDDE929212BA8E8DCD5
:1057B00044461C9B80464846B94607460132164877
:1057C000C8F800008D19072ACDE92925C8F804601A
:1057D00000F3DE839DF8832008F1080813E40B9999
:1057E0001C9328AA484603F035F800287FF448AFF8
:1057F0002A9D1C9B0DF1AC0815E40B9928AA48467C
:1058000003F028F800287FF43BAF2A9D0DF1AC0887
:1058100018E400BF449800089C980008AC98000861
:10582000102C299B1FDD0B9F102604E0103C102C30
:1058300008F1080817DD0133AF4A1035072BCDE911
:105840002935C8E90026F1DD28AA3946484603F083
:1058500001F8002840F00D84103C102CDDE92935BA
:105860000DF1AC08E7DC0133A34AC8F80020254459
:10587000072BCDE92935C8F804407FF709AC0B990F
:1058800028AA484602F0E6FF00287FF4F9AE2A9DD8
:10589000FFF7FEBB229A002A40F38B83DDE910322A
:1058A0009342A8BF1346002B1C460DDD299BC8F868
:1058B000007001332544072B2A95C8F8044029932A
:1058C00000F3468508F10808109B002CA8BF1B1B9D
:1058D000002B1C4600F3A582109B3B449B46069B75
:1058E000590500F1C582229B119A934203DB069A67
:1058F000D20740F1AF84299A1699C8F8001015997B
:10590000C8F8041001320D44072A2A95299200F3A1
:10591000398508F10808119ABC18A4EB0B04D31AB6
:105920009C42A8BF1C46002C0DDD299AC8F800B087
:1059300001322544072A2A95C8F80440299200F329
:105940003A8608F10808002CACBF1C1B1C46002C32
:105950007FF795AB102C299BDFF8A0B140F38D8326
:105960005F461026DDF82CB005E008F10808103C71
:10597000102C40F3818301331035072BCDE92935F5
:10598000C8E90076F1DD28AA5946484602F062FFD0
:1059900000287FF477AEDDE929350DF1AC08E6E7A4
:1059A000069BDE073FF57CAE013401350123072C51
:1059B000CDE92945C8F80070C8F804307FF7A2AED9
:1059C0000B9928AA484602F045FF00287FF458AEFC
:1059D000DDE929450DF1AC0896E65E1E002E7FF745
:1059E00093AE102EDFF814B140F3B883CDF81CA0AD
:1059F0001027CA46DDF82C9005E008F10808103E93
:105A0000102E40F3A88301341035072CCDE9294529
:105A1000C8E900B7F1DD28AA4946504602F01AFF4E
:105A2000002840F0E585DDE929450DF1AC08E6E701
:105A30000B9928AA484602F00DFF00287FF420AEFB
:105A40002A9D0DF1AC08FFF707BB0D9AEE0652F840
:105A5000041B0D924FF001033FD468063AD51FFA9C
:105A600081FA4FF0000B0CE4069BDA063AD4069B51
:105A70005B0640F194830D9B53F8042B0D931FFAA2
:105A800082FA4FF0000BFFF7F8BB0B9928AA4846A3
:105A900002F0E0FE00287FF4F3ADDDE929450DF1C9
:105AA000AC080BE60B9928AA484602F0D3FE002862
:105AB0007FF4E6ADDDE929450DF1AC080BE6069B68
:105AC000D8077FF5DCAA1AE534780D93FFF7C4B93F
:105AD00054AFC6E4AA0500F1CF838A464FF0000B0D
:105AE000FFF7CFBB0D9B53F8042B0D9392464FF05D
:105AF000000BFFF7C2BB00BF9C980008AC980008E1
